{
  "_format": "hh-sol-artifact-1",
  "contractName": "QB3Token",
  "sourceName": "contracts/QB3Token.sol",
  "abi": [
    {
      "inputs": [],
      "stateMutability": "nonpayable",
      "type": "constructor"
    },
    {
      "inputs": [
        {
          "internalType": "address",
          "name": "spender",
          "type": "address"
        },
        {
          "internalType": "uint256",
          "name": "allowance",
          "type": "uint256"
        },
        {
          "internalType": "uint256",
          "name": "needed",
          "type": "uint256"
        }
      ],
      "name": "ERC20InsufficientAllowance",
      "type": "error"
    },
    {
      "inputs": [
        {
          "internalType": "address",
          "name": "sender",
          "type": "address"
        },
        {
          "internalType": "uint256",
          "name": "balance",
          "type": "uint256"
        },
        {
          "internalType": "uint256",
          "name": "needed",
          "type": "uint256"
        }
      ],
      "name": "ERC20InsufficientBalance",
      "type": "error"
    },
    {
      "inputs": [
        {
          "internalType": "address",
          "name": "approver",
          "type": "address"
        }
      ],
      "name": "ERC20InvalidApprover",
      "type": "error"
    },
    {
      "inputs": [
        {
          "internalType": "address",
          "name": "receiver",
          "type": "address"
        }
      ],
      "name": "ERC20InvalidReceiver",
      "type": "error"
    },
    {
      "inputs": [
        {
          "internalType": "address",
          "name": "sender",
          "type": "address"
        }
      ],
      "name": "ERC20InvalidSender",
      "type": "error"
    },
    {
      "inputs": [
        {
          "internalType": "address",
          "name": "spender",
          "type": "address"
        }
      ],
      "name": "ERC20InvalidSpender",
      "type": "error"
    },
    {
      "inputs": [
        {
          "internalType": "address",
          "name": "owner",
          "type": "address"
        }
      ],
      "name": "OwnableInvalidOwner",
      "type": "error"
    },
    {
      "inputs": [
        {
          "internalType": "address",
          "name": "account",
          "type": "address"
        }
      ],
      "name": "OwnableUnauthorizedAccount",
      "type": "error"
    },
    {
      "anonymous": false,
      "inputs": [
        {
          "indexed": true,
          "internalType": "address",
          "name": "owner",
          "type": "address"
        },
        {
          "indexed": true,
          "internalType": "address",
          "name": "spender",
          "type": "address"
        },
        {
          "indexed": false,
          "internalType": "uint256",
          "name": "value",
          "type": "uint256"
        }
      ],
      "name": "Approval",
      "type": "event"
    },
    {
      "anonymous": false,
      "inputs": [
        {
          "indexed": true,
          "internalType": "address",
          "name": "previousOwner",
          "type": "address"
        },
        {
          "indexed": true,
          "internalType": "address",
          "name": "newOwner",
          "type": "address"
        }
      ],
      "name": "OwnershipTransferred",
      "type": "event"
    },
    {
      "anonymous": false,
      "inputs": [
        {
          "indexed": true,
          "internalType": "address",
          "name": "from",
          "type": "address"
        },
        {
          "indexed": true,
          "internalType": "address",
          "name": "to",
          "type": "address"
        },
        {
          "indexed": false,
          "internalType": "uint256",
          "name": "value",
          "type": "uint256"
        }
      ],
      "name": "Transfer",
      "type": "event"
    },
    {
      "inputs": [
        {
          "internalType": "address",
          "name": "owner",
          "type": "address"
        },
        {
          "internalType": "address",
          "name": "spender",
          "type": "address"
        }
      ],
      "name": "allowance",
      "outputs": [
        {
          "internalType": "uint256",
          "name": "",
          "type": "uint256"
        }
      ],
      "stateMutability": "view",
      "type": "function"
    },
    {
      "inputs": [
        {
          "internalType": "address",
          "name": "spender",
          "type": "address"
        },
        {
          "internalType": "uint256",
          "name": "value",
          "type": "uint256"
        }
      ],
      "name": "approve",
      "outputs": [
        {
          "internalType": "bool",
          "name": "",
          "type": "bool"
        }
      ],
      "stateMutability": "nonpayable",
      "type": "function"
    },
    {
      "inputs": [
        {
          "internalType": "address",
          "name": "account",
          "type": "address"
        }
      ],
      "name": "balanceOf",
      "outputs": [
        {
          "internalType": "uint256",
          "name": "",
          "type": "uint256"
        }
      ],
      "stateMutability": "view",
      "type": "function"
    },
    {
      "inputs": [],
      "name": "decimals",
      "outputs": [
        {
          "internalType": "uint8",
          "name": "",
          "type": "uint8"
        }
      ],
      "stateMutability": "view",
      "type": "function"
    },
    {
      "inputs": [
        {
          "internalType": "address",
          "name": "",
          "type": "address"
        }
      ],
      "name": "isMinter",
      "outputs": [
        {
          "internalType": "bool",
          "name": "",
          "type": "bool"
        }
      ],
      "stateMutability": "view",
      "type": "function"
    },
    {
      "inputs": [],
      "name": "maxSupply",
      "outputs": [
        {
          "internalType": "uint256",
          "name": "",
          "type": "uint256"
        }
      ],
      "stateMutability": "view",
      "type": "function"
    },
    {
      "inputs": [
        {
          "internalType": "address",
          "name": "to",
          "type": "address"
        },
        {
          "internalType": "uint256",
          "name": "amount",
          "type": "uint256"
        }
      ],
      "name": "mint",
      "outputs": [],
      "stateMutability": "nonpayable",
      "type": "function"
    },
    {
      "inputs": [],
      "name": "name",
      "outputs": [
        {
          "internalType": "string",
          "name": "",
          "type": "string"
        }
      ],
      "stateMutability": "view",
      "type": "function"
    },
    {
      "inputs": [],
      "name": "owner",
      "outputs": [
        {
          "internalType": "address",
          "name": "",
          "type": "address"
        }
      ],
      "stateMutability": "view",
      "type": "function"
    },
    {
      "inputs": [],
      "name": "renounceOwnership",
      "outputs": [],
      "stateMutability": "nonpayable",
      "type": "function"
    },
    {
      "inputs": [
        {
          "internalType": "address",
          "name": "account",
          "type": "address"
        },
        {
          "internalType": "bool",
          "name": "enabled",
          "type": "bool"
        }
      ],
      "name": "setMinter",
      "outputs": [],
      "stateMutability": "nonpayable",
      "type": "function"
    },
    {
      "inputs": [],
      "name": "symbol",
      "outputs": [
        {
          "internalType": "string",
          "name": "",
          "type": "string"
        }
      ],
      "stateMutability": "view",
      "type": "function"
    },
    {
      "inputs": [],
      "name": "totalSupply",
      "outputs": [
        {
          "internalType": "uint256",
          "name": "",
          "type": "uint256"
        }
      ],
      "stateMutability": "view",
      "type": "function"
    },
    {
      "inputs": [
        {
          "internalType": "address",
          "name": "to",
          "type": "address"
        },
        {
          "internalType": "uint256",
          "name": "value",
          "type": "uint256"
        }
      ],
      "name": "transfer",
      "outputs": [
        {
          "internalType": "bool",
          "name": "",
          "type": "bool"
        }
      ],
      "stateMutability": "nonpayable",
      "type": "function"
    },
    {
      "inputs": [
        {
          "internalType": "address",
          "name": "from",
          "type": "address"
        },
        {
          "internalType": "address",
          "name": "to",
          "type": "address"
        },
        {
          "internalType": "uint256",
          "name": "value",
          "type": "uint256"
        }
      ],
      "name": "transferFrom",
      "outputs": [
        {
          "internalType": "bool",
          "name": "",
          "type": "bool"
        }
      ],
      "stateMutability": "nonpayable",
      "type": "function"
    },
    {
      "inputs": [
        {
          "internalType": "address",
          "name": "newOwner",
          "type": "address"
        }
      ],
      "name": "transferOwnership",
      "outputs": [],
      "stateMutability": "nonpayable",
      "type": "function"
    }
  ],
  "bytecode": "0x60a060405269021e19e0c9bab240000060809081525034801561002157600080fd5b50336040518060400160405280600981526020017f51423320546f6b656e00000000000000000000000000000000000000000000008152506040518060400160405280600381526020017f5142330000000000000000000000000000000000000000000000000000000000815250816003908161009e9190610714565b5080600490816100ae9190610714565b505050600073ffffffffffffffffffffffffffffffffffffffff168173ffffffffffffffffffffffffffffffffffffffff16036101235760006040517f1e4fbdf700000000000000000000000000000000000000000000000000000000815260040161011a9190610827565b60405180910390fd5b6101328161015160201b60201c565b5061014c33683635c9adc5dea0000061021760201b60201c565b610906565b6000600560009054906101000a900473ffffffffffffffffffffffffffffffffffffffff16905081600560006101000a81548173ffffffffffffffffffffffffffffffffffffffff021916908373ffffffffffffffffffffffffffffffffffffffff1602179055508173ffffffffffffffffffffffffffffffffffffffff168173ffffffffffffffffffffffffffffffffffffffff167f8be0079c531659141344cd1fd0a4f28419497f9722a3daafe3b4186f6b6457e060405160405180910390a35050565b600073ffffffffffffffffffffffffffffffffffffffff168273ffffffffffffffffffffffffffffffffffffffff16036102895760006040517fec442f050000000000000000000000000000000000000000000000000000000081526004016102809190610827565b60405180910390fd5b61029b6000838361029f60201b60201c565b5050565b600073ffffffffffffffffffffffffffffffffffffffff168373ffffffffffffffffffffffffffffffffffffffff16036102f15780600260008282546102e59190610871565b925050819055506103c4565b60008060008573ffffffffffffffffffffffffffffffffffffffff1673ffffffffffffffffffffffffffffffffffffffff1681526020019081526020016000205490508181101561037d578381836040517fe450d38c000000000000000000000000000000000000000000000000000000008152600401610374939291906108b4565b60405180910390fd5b8181036000808673ffffffffffffffffffffffffffffffffffffffff1673ffffffffffffffffffffffffffffffffffffffff16815260200190815260200160002081905550505b600073ffffffffffffffffffffffffffffffffffffffff168273ffffffffffffffffffffffffffffffffffffffff160361040d578060026000828254039250508190555061045a565b806000808473ffffffffffffffffffffffffffffffffffffffff1673ffffffffffffffffffffffffffffffffffffffff168152602001908152602001600020600082825401925050819055505b8173ffffffffffffffffffffffffffffffffffffffff168373ffffffffffffffffffffffffffffffffffffffff167fddf252ad1be2c89b69c2b068fc378daa952ba7f163c4a11628f55a4df523b3ef836040516104b791906108eb565b60405180910390a3505050565b600081519050919050565b7f4e487b7100000000000000000000000000000000000000000000000000000000600052604160045260246000fd5b7f4e487b7100000000000000000000000000000000000000000000000000000000600052602260045260246000fd5b6000600282049050600182168061054557607f821691505b602082108103610558576105576104fe565b5b50919050565b60008190508160005260206000209050919050565b60006020601f8301049050919050565b600082821b905092915050565b6000600883026105c07fffffffffffffffffffffffffffffffffffffffffffffffffffffffffffffffff82610583565b6105ca8683610583565b95508019841693508086168417925050509392505050565b6000819050919050565b6000819050919050565b600061061161060c610607846105e2565b6105ec565b6105e2565b9050919050565b6000819050919050565b61062b836105f6565b61063f61063782610618565b848454610590565b825550505050565b600090565b610654610647565b61065f818484610622565b505050565b5b818110156106835761067860008261064c565b600181019050610665565b5050565b601f8211156106c8576106998161055e565b6106a284610573565b810160208510156106b1578190505b6106c56106bd85610573565b830182610664565b50505b505050565b600082821c905092915050565b60006106eb600019846008026106cd565b1980831691505092915050565b600061070483836106da565b9150826002028217905092915050565b61071d826104c4565b67ffffffffffffffff811115610736576107356104cf565b5b610740825461052d565b61074b828285610687565b600060209050601f83116001811461077e576000841561076c578287015190505b61077685826106f8565b8655506107de565b601f19841661078c8661055e565b60005b828110156107b45784890151825560018201915060208501945060208101905061078f565b868310156107d157848901516107cd601f8916826106da565b8355505b6001600288020188555050505b505050505050565b600073ffffffffffffffffffffffffffffffffffffffff82169050919050565b6000610811826107e6565b9050919050565b61082181610806565b82525050565b600060208201905061083c6000830184610818565b92915050565b7f4e487b7100000000000000000000000000000000000000000000000000000000600052601160045260246000fd5b600061087c826105e2565b9150610887836105e2565b925082820190508082111561089f5761089e610842565b5b92915050565b6108ae816105e2565b82525050565b60006060820190506108c96000830186610818565b6108d660208301856108a5565b6108e360408301846108a5565b949350505050565b600060208201905061090060008301846108a5565b92915050565b60805161151a610928600039600081816104bc01526106fd015261151a6000f3fe608060405234801561001057600080fd5b50600436106101005760003560e01c80638da5cb5b11610097578063cf456ae711610066578063cf456ae7146102b1578063d5abeb01146102cd578063dd62ed3e146102eb578063f2fde38b1461031b57610100565b80638da5cb5b1461021557806395d89b4114610233578063a9059cbb14610251578063aa271e1a1461028157610100565b8063313ce567116100d3578063313ce567146101a157806340c10f19146101bf57806370a08231146101db578063715018a61461020b57610100565b806306fdde0314610105578063095ea7b31461012357806318160ddd1461015357806323b872dd14610171575b600080fd5b61010d610337565b60405161011a919061102a565b60405180910390f35b61013d600480360381019061013891906110e5565b6103c9565b60405161014a9190611140565b60405180910390f35b61015b6103ec565b604051610168919061116a565b60405180910390f35b61018b60048036038101906101869190611185565b6103f6565b6040516101989190611140565b60405180910390f35b6101a9610425565b6040516101b691906111f4565b60405180910390f35b6101d960048036038101906101d491906110e5565b61042e565b005b6101f560048036038101906101f0919061120f565b61053d565b604051610202919061116a565b60405180910390f35b610213610585565b005b61021d610599565b60405161022a919061124b565b60405180910390f35b61023b6105c3565b604051610248919061102a565b60405180910390f35b61026b600480360381019061026691906110e5565b610655565b6040516102789190611140565b60405180910390f35b61029b6004803603810190610296919061120f565b610678565b6040516102a89190611140565b60405180910390f35b6102cb60048036038101906102c69190611292565b610698565b005b6102d56106fb565b6040516102e2919061116a565b60405180910390f35b610305600480360381019061030091906112d2565b61071f565b604051610312919061116a565b60405180910390f35b6103356004803603810190610330919061120f565b6107a6565b005b60606003805461034690611341565b80601f016020809104026020016040519081016040528092919081815260200182805461037290611341565b80156103bf5780601f10610394576101008083540402835291602001916103bf565b820191906000526020600020905b8154815290600101906020018083116103a257829003601f168201915b5050505050905090565b6000806103d461082c565b90506103e1818585610834565b600191505092915050565b6000600254905090565b60008061040161082c565b905061040e858285610846565b6104198585856108db565b60019150509392505050565b60006012905090565b600660003373ffffffffffffffffffffffffffffffffffffffff1673ffffffffffffffffffffffffffffffffffffffff16815260200190815260200160002060009054906101000a900460ff166104ba576040517f08c379a00000000000000000000000000000000000000000000000000000000081526004016104b1906113be565b60405180910390fd5b7f0000000000000000000000000000000000000000000000000000000000000000816104e46103ec565b6104ee919061140d565b111561052f576040517f08c379a00000000000000000000000000000000000000000000000000000000081526004016105269061148d565b60405180910390fd5b61053982826109cf565b5050565b60008060008373ffffffffffffffffffffffffffffffffffffffff1673ffffffffffffffffffffffffffffffffffffffff168152602001908152602001600020549050919050565b61058d610a51565b6105976000610ad8565b565b6000600560009054906101000a900473ffffffffffffffffffffffffffffffffffffffff16905090565b6060600480546105d290611341565b80601f01602080910402602001604051908101604052809291908181526020018280546105fe90611341565b801561064b5780601f106106205761010080835404028352916020019161064b565b820191906000526020600020905b81548152906001019060200180831161062e57829003601f168201915b5050505050905090565b60008061066061082c565b905061066d8185856108db565b600191505092915050565b60066020528060005260406000206000915054906101000a900460ff1681565b6106a0610a51565b80600660008473ffffffffffffffffffffffffffffffffffffffff1673ffffffffffffffffffffffffffffffffffffffff16815260200190815260200160002060006101000a81548160ff0219169083151502179055505050565b7f000000000000000000000000000000000000000000000000000000000000000081565b6000600160008473ffffffffffffffffffffffffffffffffffffffff1673ffffffffffffffffffffffffffffffffffffffff16815260200190815260200160002060008373ffffffffffffffffffffffffffffffffffffffff1673ffffffffffffffffffffffffffffffffffffffff16815260200190815260200160002054905092915050565b6107ae610a51565b600073ffffffffffffffffffffffffffffffffffffffff168173ffffffffffffffffffffffffffffffffffffffff16036108205760006040517f1e4fbdf7000000000000000000000000000000000000000000000000000000008152600401610817919061124b565b60405180910390fd5b61082981610ad8565b50565b600033905090565b6108418383836001610b9e565b505050565b6000610852848461071f565b90507fffffffffffffffffffffffffffffffffffffffffffffffffffffffffffffffff8110156108d557818110156108c5578281836040517ffb8f41b20000000000000000000000000000000000000000000000000000000081526004016108bc939291906114ad565b60405180910390fd5b6108d484848484036000610b9e565b5b50505050565b600073ffffffffffffffffffffffffffffffffffffffff168373ffffffffffffffffffffffffffffffffffffffff160361094d5760006040517f96c6fd1e000000000000000000000000000000000000000000000000000000008152600401610944919061124b565b60405180910390fd5b600073ffffffffffffffffffffffffffffffffffffffff168273ffffffffffffffffffffffffffffffffffffffff16036109bf5760006040517fec442f050000000000000000000000000000000000000000000000000000000081526004016109b6919061124b565b60405180910390fd5b6109ca838383610d75565b505050565b600073ffffffffffffffffffffffffffffffffffffffff168273ffffffffffffffffffffffffffffffffffffffff1603610a415760006040517fec442f05000000000000000000000000000000000000000000000000000000008152600401610a38919061124b565b60405180910390fd5b610a4d60008383610d75565b5050565b610a5961082c565b73ffffffffffffffffffffffffffffffffffffffff16610a77610599565b73ffffffffffffffffffffffffffffffffffffffff1614610ad657610a9a61082c565b6040517f118cdaa7000000000000000000000000000000000000000000000000000000008152600401610acd919061124b565b60405180910390fd5b565b6000600560009054906101000a900473ffffffffffffffffffffffffffffffffffffffff16905081600560006101000a81548173ffffffffffffffffffffffffffffffffffffffff021916908373ffffffffffffffffffffffffffffffffffffffff1602179055508173ffffffffffffffffffffffffffffffffffffffff168173ffffffffffffffffffffffffffffffffffffffff167f8be0079c531659141344cd1fd0a4f28419497f9722a3daafe3b4186f6b6457e060405160405180910390a35050565b600073ffffffffffffffffffffffffffffffffffffffff168473ffffffffffffffffffffffffffffffffffffffff1603610c105760006040517fe602df05000000000000000000000000000000000000000000000000000000008152600401610c07919061124b565b60405180910390fd5b600073ffffffffffffffffffffffffffffffffffffffff168373ffffffffffffffffffffffffffffffffffffffff1603610c825760006040517f94280d62000000000000000000000000000000000000000000000000000000008152600401610c79919061124b565b60405180910390fd5b81600160008673ffffffffffffffffffffffffffffffffffffffff1673ffffffffffffffffffffffffffffffffffffffff16815260200190815260200160002060008573ffffffffffffffffffffffffffffffffffffffff1673ffffffffffffffffffffffffffffffffffffffff168152602001908152602001600020819055508015610d6f578273ffffffffffffffffffffffffffffffffffffffff168473ffffffffffffffffffffffffffffffffffffffff167f8c5be1e5ebec7d5bd14f71427d1e84f3dd0314c0f7b2291e5b200ac8c7c3b92584604051610d66919061116a565b60405180910390a35b50505050565b600073ffffffffffffffffffffffffffffffffffffffff168373ffffffffffffffffffffffffffffffffffffffff1603610dc7578060026000828254610dbb919061140d565b92505081905550610e9a565b60008060008573ffffffffffffffffffffffffffffffffffffffff1673ffffffffffffffffffffffffffffffffffffffff16815260200190815260200160002054905081811015610e53578381836040517fe450d38c000000000000000000000000000000000000000000000000000000008152600401610e4a939291906114ad565b60405180910390fd5b8181036000808673ffffffffffffffffffffffffffffffffffffffff1673ffffffffffffffffffffffffffffffffffffffff16815260200190815260200160002081905550505b600073ffffffffffffffffffffffffffffffffffffffff168273ffffffffffffffffffffffffffffffffffffffff1603610ee35780600260008282540392505081905550610f30565b806000808473ffffffffffffffffffffffffffffffffffffffff1673ffffffffffffffffffffffffffffffffffffffff168152602001908152602001600020600082825401925050819055505b8173ffffffffffffffffffffffffffffffffffffffff168373ffffffffffffffffffffffffffffffffffffffff167fddf252ad1be2c89b69c2b068fc378daa952ba7f163c4a11628f55a4df523b3ef83604051610f8d919061116a565b60405180910390a3505050565b600081519050919050565b600082825260208201905092915050565b60005b83811015610fd4578082015181840152602081019050610fb9565b60008484015250505050565b6000601f19601f8301169050919050565b6000610ffc82610f9a565b6110068185610fa5565b9350611016818560208601610fb6565b61101f81610fe0565b840191505092915050565b600060208201905081810360008301526110448184610ff1565b905092915050565b600080fd5b600073ffffffffffffffffffffffffffffffffffffffff82169050919050565b600061107c82611051565b9050919050565b61108c81611071565b811461109757600080fd5b50565b6000813590506110a981611083565b92915050565b6000819050919050565b6110c2816110af565b81146110cd57600080fd5b50565b6000813590506110df816110b9565b92915050565b600080604083850312156110fc576110fb61104c565b5b600061110a8582860161109a565b925050602061111b858286016110d0565b9150509250929050565b60008115159050919050565b61113a81611125565b82525050565b60006020820190506111556000830184611131565b92915050565b611164816110af565b82525050565b600060208201905061117f600083018461115b565b92915050565b60008060006060848603121561119e5761119d61104c565b5b60006111ac8682870161109a565b93505060206111bd8682870161109a565b92505060406111ce868287016110d0565b9150509250925092565b600060ff82169050919050565b6111ee816111d8565b82525050565b600060208201905061120960008301846111e5565b92915050565b6000602082840312156112255761122461104c565b5b60006112338482850161109a565b91505092915050565b61124581611071565b82525050565b6000602082019050611260600083018461123c565b92915050565b61126f81611125565b811461127a57600080fd5b50565b60008135905061128c81611266565b92915050565b600080604083850312156112a9576112a861104c565b5b60006112b78582860161109a565b92505060206112c88582860161127d565b9150509250929050565b600080604083850312156112e9576112e861104c565b5b60006112f78582860161109a565b92505060206113088582860161109a565b9150509250929050565b7f4e487b7100000000000000000000000000000000000000000000000000000000600052602260045260246000fd5b6000600282049050600182168061135957607f821691505b60208210810361136c5761136b611312565b5b50919050565b7f5142333a206e6f7420617574686f72697a656420746f206d696e740000000000600082015250565b60006113a8601b83610fa5565b91506113b382611372565b602082019050919050565b600060208201905081810360008301526113d78161139b565b9050919050565b7f4e487b7100000000000000000000000000000000000000000000000000000000600052601160045260246000fd5b6000611418826110af565b9150611423836110af565b925082820190508082111561143b5761143a6113de565b5b92915050565b7f5142333a2065786365656473206d617820737570706c79000000000000000000600082015250565b6000611477601783610fa5565b915061148282611441565b602082019050919050565b600060208201905081810360008301526114a68161146a565b9050919050565b60006060820190506114c2600083018661123c565b6114cf602083018561115b565b6114dc604083018461115b565b94935050505056fea26469706673582212208f545a38fb9c7b1672a0942f2542ce7fcbe899ff8d8c0e9a949c7a38c31fb9ab64736f6c634300081c0033",
  "linkReferences": {},
  "deployedLinkReferences": {}
}