{
  "_format": "hh-sol-artifact-1",
  "contractName": "SpaceRegistry",
  "sourceName": "contracts/SpaceRegistry.sol",
  "abi": [
    {
      "inputs": [
        {
          "internalType": "address",
          "name": "_qb3Token",
          "type": "address"
        }
      ],
      "stateMutability": "nonpayable",
      "type": "constructor"
    },
    {
      "inputs": [],
      "name": "InvalidCapacity",
      "type": "error"
    },
    {
      "inputs": [],
      "name": "InvalidTimeRange",
      "type": "error"
    },
    {
      "inputs": [],
      "name": "NotSpaceOwner",
      "type": "error"
    },
    {
      "inputs": [
        {
          "internalType": "address",
          "name": "owner",
          "type": "address"
        }
      ],
      "name": "OwnableInvalidOwner",
      "type": "error"
    },
    {
      "inputs": [
        {
          "internalType": "address",
          "name": "account",
          "type": "address"
        }
      ],
      "name": "OwnableUnauthorizedAccount",
      "type": "error"
    },
    {
      "anonymous": false,
      "inputs": [
        {
          "indexed": true,
          "internalType": "uint256",
          "name": "spaceId",
          "type": "uint256"
        },
        {
          "indexed": false,
          "internalType": "uint256",
          "name": "newStartTime",
          "type": "uint256"
        },
        {
          "indexed": false,
          "internalType": "uint256",
          "name": "newEndTime",
          "type": "uint256"
        }
      ],
      "name": "AvailabilityUpdated",
      "type": "event"
    },
    {
      "anonymous": false,
      "inputs": [
        {
          "indexed": true,
          "internalType": "address",
          "name": "previousOwner",
          "type": "address"
        },
        {
          "indexed": true,
          "internalType": "address",
          "name": "newOwner",
          "type": "address"
        }
      ],
      "name": "OwnershipTransferred",
      "type": "event"
    },
    {
      "anonymous": false,
      "inputs": [
        {
          "indexed": true,
          "internalType": "uint256",
          "name": "spaceId",
          "type": "uint256"
        },
        {
          "indexed": true,
          "internalType": "address",
          "name": "owner",
          "type": "address"
        }
      ],
      "name": "SpaceRegistered",
      "type": "event"
    },
    {
      "inputs": [],
      "name": "MIN_AVAILABILITY_DURATION",
      "outputs": [
        {
          "internalType": "uint256",
          "name": "",
          "type": "uint256"
        }
      ],
      "stateMutability": "view",
      "type": "function"
    },
    {
      "inputs": [
        {
          "internalType": "uint256",
          "name": "spaceId",
          "type": "uint256"
        }
      ],
      "name": "deactivateSpace",
      "outputs": [],
      "stateMutability": "nonpayable",
      "type": "function"
    },
    {
      "inputs": [
        {
          "internalType": "bytes32",
          "name": "zoneHash",
          "type": "bytes32"
        }
      ],
      "name": "getZoneInfo",
      "outputs": [
        {
          "internalType": "uint256",
          "name": "total",
          "type": "uint256"
        },
        {
          "internalType": "uint256",
          "name": "used",
          "type": "uint256"
        }
      ],
      "stateMutability": "view",
      "type": "function"
    },
    {
      "inputs": [],
      "name": "nextSpaceId",
      "outputs": [
        {
          "internalType": "uint256",
          "name": "",
          "type": "uint256"
        }
      ],
      "stateMutability": "view",
      "type": "function"
    },
    {
      "inputs": [],
      "name": "owner",
      "outputs": [
        {
          "internalType": "address",
          "name": "",
          "type": "address"
        }
      ],
      "stateMutability": "view",
      "type": "function"
    },
    {
      "inputs": [],
      "name": "qb3Token",
      "outputs": [
        {
          "internalType": "contract QB3Token",
          "name": "",
          "type": "address"
        }
      ],
      "stateMutability": "view",
      "type": "function"
    },
    {
      "inputs": [
        {
          "internalType": "uint256",
          "name": "spaceId",
          "type": "uint256"
        }
      ],
      "name": "reactivateSpace",
      "outputs": [],
      "stateMutability": "nonpayable",
      "type": "function"
    },
    {
      "inputs": [
        {
          "internalType": "uint256",
          "name": "capacity",
          "type": "uint256"
        },
        {
          "internalType": "bytes32",
          "name": "zoneHash",
          "type": "bytes32"
        },
        {
          "internalType": "bytes32",
          "name": "locationHash",
          "type": "bytes32"
        },
        {
          "internalType": "uint256",
          "name": "startTime",
          "type": "uint256"
        },
        {
          "internalType": "uint256",
          "name": "endTime",
          "type": "uint256"
        }
      ],
      "name": "registerSpace",
      "outputs": [],
      "stateMutability": "nonpayable",
      "type": "function"
    },
    {
      "inputs": [],
      "name": "renounceOwnership",
      "outputs": [],
      "stateMutability": "nonpayable",
      "type": "function"
    },
    {
      "inputs": [],
      "name": "rewardPerUnit",
      "outputs": [
        {
          "internalType": "uint256",
          "name": "",
          "type": "uint256"
        }
      ],
      "stateMutability": "view",
      "type": "function"
    },
    {
      "inputs": [
        {
          "internalType": "uint256",
          "name": "",
          "type": "uint256"
        }
      ],
      "name": "spaces",
      "outputs": [
        {
          "internalType": "address",
          "name": "host",
          "type": "address"
        },
        {
          "internalType": "uint256",
          "name": "capacity",
          "type": "uint256"
        },
        {
          "internalType": "uint256",
          "name": "usedVolume",
          "type": "uint256"
        },
        {
          "internalType": "bool",
          "name": "isActive",
          "type": "bool"
        },
        {
          "components": [
            {
              "internalType": "uint256",
              "name": "startTime",
              "type": "uint256"
            },
            {
              "internalType": "uint256",
              "name": "endTime",
              "type": "uint256"
            }
          ],
          "internalType": "struct SpaceRegistry.Availability",
          "name": "availability",
          "type": "tuple"
        },
        {
          "internalType": "bytes32",
          "name": "zoneHash",
          "type": "bytes32"
        },
        {
          "internalType": "bytes32",
          "name": "locationHash",
          "type": "bytes32"
        }
      ],
      "stateMutability": "view",
      "type": "function"
    },
    {
      "inputs": [
        {
          "internalType": "address",
          "name": "newOwner",
          "type": "address"
        }
      ],
      "name": "transferOwnership",
      "outputs": [],
      "stateMutability": "nonpayable",
      "type": "function"
    },
    {
      "inputs": [
        {
          "internalType": "uint256",
          "name": "spaceId",
          "type": "uint256"
        },
        {
          "internalType": "uint256",
          "name": "newStartTime",
          "type": "uint256"
        },
        {
          "internalType": "uint256",
          "name": "newEndTime",
          "type": "uint256"
        }
      ],
      "name": "updateAvailability",
      "outputs": [],
      "stateMutability": "nonpayable",
      "type": "function"
    },
    {
      "inputs": [
        {
          "internalType": "bytes32",
          "name": "",
          "type": "bytes32"
        }
      ],
      "name": "zones",
      "outputs": [
        {
          "internalType": "uint256",
          "name": "totalCapacity",
          "type": "uint256"
        },
        {
          "internalType": "uint256",
          "name": "usedCapacity",
          "type": "uint256"
        }
      ],
      "stateMutability": "view",
      "type": "function"
    }
  ],
  "bytecode": "0x6080604052670de0b6b3a764000060025534801561001c57600080fd5b50604051611418380380611418833981810160405281019061003e919061022f565b33600073ffffffffffffffffffffffffffffffffffffffff168173ffffffffffffffffffffffffffffffffffffffff16036100b15760006040517f1e4fbdf70000000000000000000000000000000000000000000000000000000081526004016100a8919061026b565b60405180910390fd5b6100c08161010860201b60201c565b5080600160006101000a81548173ffffffffffffffffffffffffffffffffffffffff021916908373ffffffffffffffffffffffffffffffffffffffff16021790555050610286565b60008060009054906101000a900473ffffffffffffffffffffffffffffffffffffffff169050816000806101000a81548173ffffffffffffffffffffffffffffffffffffffff021916908373ffffffffffffffffffffffffffffffffffffffff1602179055508173ffffffffffffffffffffffffffffffffffffffff168173ffffffffffffffffffffffffffffffffffffffff167f8be0079c531659141344cd1fd0a4f28419497f9722a3daafe3b4186f6b6457e060405160405180910390a35050565b600080fd5b600073ffffffffffffffffffffffffffffffffffffffff82169050919050565b60006101fc826101d1565b9050919050565b61020c816101f1565b811461021757600080fd5b50565b60008151905061022981610203565b92915050565b600060208284031215610245576102446101cc565b5b60006102538482850161021a565b91505092915050565b610265816101f1565b82525050565b6000602082019050610280600083018461025c565b92915050565b611183806102956000396000f3fe608060405234801561001057600080fd5b50600436106100ea5760003560e01c8063bfcbee1a1161008c578063e14a4c3411610066578063e14a4c341461023f578063e565e6611461025b578063f2fde38b14610279578063f9b1228914610295576100ea565b8063bfcbee1a146101d4578063c53436bf14610205578063dfe138a614610221576100ea565b8063715018a6116100c8578063715018a6146101585780637586353b14610162578063806c8fe9146101985780638da5cb5b146101b6576100ea565b80632509dbda146100ef5780634443c5fa1461010b5780636de75ff814610127575b600080fd5b61010960048036038101906101049190610c81565b6102b3565b005b61012560048036038101906101209190610cfc565b6105d6565b005b610141600480360381019061013c9190610d29565b6106a5565b60405161014f929190610d65565b60405180910390f35b6101606106c9565b005b61017c60048036038101906101779190610cfc565b6106dd565b60405161018f9796959493929190610e37565b60405180910390f35b6101a061076a565b6040516101ad9190610ea7565b60405180910390f35b6101be610770565b6040516101cb9190610ec2565b60405180910390f35b6101ee60048036038101906101e99190610d29565b610799565b6040516101fc929190610d65565b60405180910390f35b61021f600480360381019061021a9190610edd565b6107c7565b005b610229610936565b6040516102369190610ea7565b60405180910390f35b61025960048036038101906102549190610cfc565b61093c565b005b610263610a0b565b6040516102709190610ea7565b60405180910390f35b610293600480360381019061028e9190610f5c565b610a11565b005b61029d610a97565b6040516102aa9190610fe8565b60405180910390f35b600085036102ed576040517f31278a8700000000000000000000000000000000000000000000000000000000815260040160405180910390fd5b808211806103075750610e1082826103059190611032565b105b1561033e576040517f536a71af00000000000000000000000000000000000000000000000000000000815260040160405180910390fd5b60006003600081548092919061035390611066565b9190505590506040518060e001604052803373ffffffffffffffffffffffffffffffffffffffff168152602001878152602001600081526020016001151581526020016040518060400160405280868152602001858152508152602001868152602001858152506004600083815260200190815260200160002060008201518160000160006101000a81548173ffffffffffffffffffffffffffffffffffffffff021916908373ffffffffffffffffffffffffffffffffffffffff160217905550602082015181600101556040820151816002015560608201518160030160006101000a81548160ff0219169083151502179055506080820151816004016000820151816000015560208201518160010155505060a0820151816006015560c08201518160070155905050856005600087815260200190815260200160002060000160008282546104a491906110ae565b92505081905550600560008681526020019081526020016000206002018190806001815401808255809150506001900390600052602060002001600090919091909150556000600254876104f891906110e2565b9050600160009054906101000a900473ffffffffffffffffffffffffffffffffffffffff1673ffffffffffffffffffffffffffffffffffffffff166340c10f1933836040518363ffffffff1660e01b8152600401610557929190611124565b600060405180830381600087803b15801561057157600080fd5b505af1158015610585573d6000803e3d6000fd5b505050503373ffffffffffffffffffffffffffffffffffffffff16827f4e9d925967f355c189fe2af4ea829fd207ac1de630efbd9780a35e1960cc31d160405160405180910390a350505050505050565b803373ffffffffffffffffffffffffffffffffffffffff166004600083815260200190815260200160002060000160009054906101000a900473ffffffffffffffffffffffffffffffffffffffff1673ffffffffffffffffffffffffffffffffffffffff1614610672576040517f8c09e73f00000000000000000000000000000000000000000000000000000000815260040160405180910390fd5b60016004600084815260200190815260200160002060030160006101000a81548160ff0219169083151502179055505050565b60056020528060005260406000206000915090508060000154908060010154905082565b6106d1610abd565b6106db6000610b44565b565b60046020528060005260406000206000915090508060000160009054906101000a900473ffffffffffffffffffffffffffffffffffffffff16908060010154908060020154908060030160009054906101000a900460ff16908060040160405180604001604052908160008201548152602001600182015481525050908060060154908060070154905087565b610e1081565b60008060009054906101000a900473ffffffffffffffffffffffffffffffffffffffff16905090565b6000806000600560008581526020019081526020016000209050806000015481600101549250925050915091565b823373ffffffffffffffffffffffffffffffffffffffff166004600083815260200190815260200160002060000160009054906101000a900473ffffffffffffffffffffffffffffffffffffffff1673ffffffffffffffffffffffffffffffffffffffff1614610863576040517f8c09e73f00000000000000000000000000000000000000000000000000000000815260040160405180910390fd5b8183118061087d5750610e10838361087b9190611032565b105b156108b4576040517f536a71af00000000000000000000000000000000000000000000000000000000815260040160405180910390fd5b604051806040016040528084815260200183815250600460008681526020019081526020016000206004016000820151816000015560208201518160010155905050837fbbfae26959ac60bf14b8b7b84610d044016473c51674e0350bbdc4c634dd6ac88484604051610928929190610d65565b60405180910390a250505050565b60025481565b803373ffffffffffffffffffffffffffffffffffffffff166004600083815260200190815260200160002060000160009054906101000a900473ffffffffffffffffffffffffffffffffffffffff1673ffffffffffffffffffffffffffffffffffffffff16146109d8576040517f8c09e73f00000000000000000000000000000000000000000000000000000000815260040160405180910390fd5b60006004600084815260200190815260200160002060030160006101000a81548160ff0219169083151502179055505050565b60035481565b610a19610abd565b600073ffffffffffffffffffffffffffffffffffffffff168173ffffffffffffffffffffffffffffffffffffffff1603610a8b5760006040517f1e4fbdf7000000000000000000000000000000000000000000000000000000008152600401610a829190610ec2565b60405180910390fd5b610a9481610b44565b50565b600160009054906101000a900473ffffffffffffffffffffffffffffffffffffffff1681565b610ac5610c08565b73ffffffffffffffffffffffffffffffffffffffff16610ae3610770565b73ffffffffffffffffffffffffffffffffffffffff1614610b4257610b06610c08565b6040517f118cdaa7000000000000000000000000000000000000000000000000000000008152600401610b399190610ec2565b60405180910390fd5b565b60008060009054906101000a900473ffffffffffffffffffffffffffffffffffffffff169050816000806101000a81548173ffffffffffffffffffffffffffffffffffffffff021916908373ffffffffffffffffffffffffffffffffffffffff1602179055508173ffffffffffffffffffffffffffffffffffffffff168173ffffffffffffffffffffffffffffffffffffffff167f8be0079c531659141344cd1fd0a4f28419497f9722a3daafe3b4186f6b6457e060405160405180910390a35050565b600033905090565b600080fd5b6000819050919050565b610c2881610c15565b8114610c3357600080fd5b50565b600081359050610c4581610c1f565b92915050565b6000819050919050565b610c5e81610c4b565b8114610c6957600080fd5b50565b600081359050610c7b81610c55565b92915050565b600080600080600060a08688031215610c9d57610c9c610c10565b5b6000610cab88828901610c36565b9550506020610cbc88828901610c6c565b9450506040610ccd88828901610c6c565b9350506060610cde88828901610c36565b9250506080610cef88828901610c36565b9150509295509295909350565b600060208284031215610d1257610d11610c10565b5b6000610d2084828501610c36565b91505092915050565b600060208284031215610d3f57610d3e610c10565b5b6000610d4d84828501610c6c565b91505092915050565b610d5f81610c15565b82525050565b6000604082019050610d7a6000830185610d56565b610d876020830184610d56565b9392505050565b600073ffffffffffffffffffffffffffffffffffffffff82169050919050565b6000610db982610d8e565b9050919050565b610dc981610dae565b82525050565b60008115159050919050565b610de481610dcf565b82525050565b610df381610c15565b82525050565b604082016000820151610e0f6000850182610dea565b506020820151610e226020850182610dea565b50505050565b610e3181610c4b565b82525050565b600061010082019050610e4d600083018a610dc0565b610e5a6020830189610d56565b610e676040830188610d56565b610e746060830187610ddb565b610e816080830186610df9565b610e8e60c0830185610e28565b610e9b60e0830184610e28565b98975050505050505050565b6000602082019050610ebc6000830184610d56565b92915050565b6000602082019050610ed76000830184610dc0565b92915050565b600080600060608486031215610ef657610ef5610c10565b5b6000610f0486828701610c36565b9350506020610f1586828701610c36565b9250506040610f2686828701610c36565b9150509250925092565b610f3981610dae565b8114610f4457600080fd5b50565b600081359050610f5681610f30565b92915050565b600060208284031215610f7257610f71610c10565b5b6000610f8084828501610f47565b91505092915050565b6000819050919050565b6000610fae610fa9610fa484610d8e565b610f89565b610d8e565b9050919050565b6000610fc082610f93565b9050919050565b6000610fd282610fb5565b9050919050565b610fe281610fc7565b82525050565b6000602082019050610ffd6000830184610fd9565b92915050565b7f4e487b7100000000000000000000000000000000000000000000000000000000600052601160045260246000fd5b600061103d82610c15565b915061104883610c15565b92508282039050818111156110605761105f611003565b5b92915050565b600061107182610c15565b91507fffffffffffffffffffffffffffffffffffffffffffffffffffffffffffffffff82036110a3576110a2611003565b5b600182019050919050565b60006110b982610c15565b91506110c483610c15565b92508282019050808211156110dc576110db611003565b5b92915050565b60006110ed82610c15565b91506110f883610c15565b925082820261110681610c15565b9150828204841483151761111d5761111c611003565b5b5092915050565b60006040820190506111396000830185610dc0565b6111466020830184610d56565b939250505056fea264697066735822122051fbd204f7c4ce64052cfa539dbfdf2a8e7a0829166883c2bd50ae9693ce9d9964736f6c634300081c0033",
  "linkReferences": {},
  "deployedLinkReferences": {}
}