{
  "_format": "hh-sol-artifact-1",
  "contractName": "SpaceRegistry",
  "sourceName": "contracts/SpaceRegistry.sol",
  "abi": [
    {
      "inputs": [
        {
          "internalType": "address",
          "name": "_qb3Token",
          "type": "address"
        }
      ],
      "stateMutability": "nonpayable",
      "type": "constructor"
    },
    {
      "inputs": [],
      "name": "InvalidCapacity",
      "type": "error"
    },
    {
      "inputs": [],
      "name": "InvalidTimeRange",
      "type": "error"
    },
    {
      "inputs": [],
      "name": "NotSpaceOwner",
      "type": "error"
    },
    {
      "inputs": [
        {
          "internalType": "address",
          "name": "owner",
          "type": "address"
        }
      ],
      "name": "OwnableInvalidOwner",
      "type": "error"
    },
    {
      "inputs": [
        {
          "internalType": "address",
          "name": "account",
          "type": "address"
        }
      ],
      "name": "OwnableUnauthorizedAccount",
      "type": "error"
    },
    {
      "anonymous": false,
      "inputs": [
        {
          "indexed": true,
          "internalType": "address",
          "name": "previousOwner",
          "type": "address"
        },
        {
          "indexed": true,
          "internalType": "address",
          "name": "newOwner",
          "type": "address"
        }
      ],
      "name": "OwnershipTransferred",
      "type": "event"
    },
    {
      "anonymous": false,
      "inputs": [
        {
          "indexed": true,
          "internalType": "uint256",
          "name": "spaceId",
          "type": "uint256"
        },
        {
          "indexed": true,
          "internalType": "address",
          "name": "owner",
          "type": "address"
        }
      ],
      "name": "SpaceRegistered",
      "type": "event"
    },
    {
      "inputs": [],
      "name": "nextSpaceId",
      "outputs": [
        {
          "internalType": "uint256",
          "name": "",
          "type": "uint256"
        }
      ],
      "stateMutability": "view",
      "type": "function"
    },
    {
      "inputs": [],
      "name": "owner",
      "outputs": [
        {
          "internalType": "address",
          "name": "",
          "type": "address"
        }
      ],
      "stateMutability": "view",
      "type": "function"
    },
    {
      "inputs": [],
      "name": "qb3Token",
      "outputs": [
        {
          "internalType": "contract QB3Token",
          "name": "",
          "type": "address"
        }
      ],
      "stateMutability": "view",
      "type": "function"
    },
    {
      "inputs": [
        {
          "internalType": "uint256",
          "name": "capacity",
          "type": "uint256"
        },
        {
          "internalType": "bytes32",
          "name": "zoneHash",
          "type": "bytes32"
        },
        {
          "internalType": "bytes32",
          "name": "locationHash",
          "type": "bytes32"
        },
        {
          "internalType": "uint256",
          "name": "startTime",
          "type": "uint256"
        },
        {
          "internalType": "uint256",
          "name": "endTime",
          "type": "uint256"
        }
      ],
      "name": "registerSpace",
      "outputs": [],
      "stateMutability": "nonpayable",
      "type": "function"
    },
    {
      "inputs": [],
      "name": "renounceOwnership",
      "outputs": [],
      "stateMutability": "nonpayable",
      "type": "function"
    },
    {
      "inputs": [],
      "name": "rewardPerUnit",
      "outputs": [
        {
          "internalType": "uint256",
          "name": "",
          "type": "uint256"
        }
      ],
      "stateMutability": "view",
      "type": "function"
    },
    {
      "inputs": [
        {
          "internalType": "uint256",
          "name": "",
          "type": "uint256"
        }
      ],
      "name": "spaces",
      "outputs": [
        {
          "internalType": "address",
          "name": "host",
          "type": "address"
        },
        {
          "internalType": "uint256",
          "name": "capacity",
          "type": "uint256"
        },
        {
          "internalType": "uint256",
          "name": "usedVolume",
          "type": "uint256"
        },
        {
          "internalType": "bool",
          "name": "isActive",
          "type": "bool"
        },
        {
          "components": [
            {
              "internalType": "uint256",
              "name": "startTime",
              "type": "uint256"
            },
            {
              "internalType": "uint256",
              "name": "endTime",
              "type": "uint256"
            }
          ],
          "internalType": "struct SpaceRegistry.Availability",
          "name": "availability",
          "type": "tuple"
        },
        {
          "internalType": "bytes32",
          "name": "zoneHash",
          "type": "bytes32"
        },
        {
          "internalType": "bytes32",
          "name": "locationHash",
          "type": "bytes32"
        }
      ],
      "stateMutability": "view",
      "type": "function"
    },
    {
      "inputs": [
        {
          "internalType": "address",
          "name": "newOwner",
          "type": "address"
        }
      ],
      "name": "transferOwnership",
      "outputs": [],
      "stateMutability": "nonpayable",
      "type": "function"
    },
    {
      "inputs": [
        {
          "internalType": "bytes32",
          "name": "",
          "type": "bytes32"
        }
      ],
      "name": "zones",
      "outputs": [
        {
          "internalType": "uint256",
          "name": "totalCapacity",
          "type": "uint256"
        },
        {
          "internalType": "uint256",
          "name": "usedCapacity",
          "type": "uint256"
        }
      ],
      "stateMutability": "view",
      "type": "function"
    }
  ],
  "bytecode": "0x6080604052670de0b6b3a764000060025534801561001c57600080fd5b50604051610f3f380380610f3f833981810160405281019061003e919061022f565b33600073ffffffffffffffffffffffffffffffffffffffff168173ffffffffffffffffffffffffffffffffffffffff16036100b15760006040517f1e4fbdf70000000000000000000000000000000000000000000000000000000081526004016100a8919061026b565b60405180910390fd5b6100c08161010860201b60201c565b5080600160006101000a81548173ffffffffffffffffffffffffffffffffffffffff021916908373ffffffffffffffffffffffffffffffffffffffff16021790555050610286565b60008060009054906101000a900473ffffffffffffffffffffffffffffffffffffffff169050816000806101000a81548173ffffffffffffffffffffffffffffffffffffffff021916908373ffffffffffffffffffffffffffffffffffffffff1602179055508173ffffffffffffffffffffffffffffffffffffffff168173ffffffffffffffffffffffffffffffffffffffff167f8be0079c531659141344cd1fd0a4f28419497f9722a3daafe3b4186f6b6457e060405160405180910390a35050565b600080fd5b600073ffffffffffffffffffffffffffffffffffffffff82169050919050565b60006101fc826101d1565b9050919050565b61020c816101f1565b811461021757600080fd5b50565b60008151905061022981610203565b92915050565b600060208284031215610245576102446101cc565b5b60006102538482850161021a565b91505092915050565b610265816101f1565b82525050565b6000602082019050610280600083018461025c565b92915050565b610caa806102956000396000f3fe608060405234801561001057600080fd5b50600436106100935760003560e01c80638da5cb5b116100665780638da5cb5b14610125578063dfe138a614610143578063e565e66114610161578063f2fde38b1461017f578063f9b122891461019b57610093565b80632509dbda146100985780636de75ff8146100b4578063715018a6146100e55780637586353b146100ef575b600080fd5b6100b260048036038101906100ad919061082f565b6101b9565b005b6100ce60048036038101906100c991906108aa565b6104c5565b6040516100dc9291906108e6565b60405180910390f35b6100ed6104e9565b005b6101096004803603810190610104919061090f565b6104fd565b60405161011c97969594939291906109e5565b60405180910390f35b61012d61058a565b60405161013a9190610a55565b60405180910390f35b61014b6105b3565b6040516101589190610a70565b60405180910390f35b6101696105b9565b6040516101769190610a70565b60405180910390f35b61019960048036038101906101949190610ab7565b6105bf565b005b6101a3610645565b6040516101b09190610b43565b60405180910390f35b600085036101f3576040517f31278a8700000000000000000000000000000000000000000000000000000000815260040160405180910390fd5b8082111561022d576040517f536a71af00000000000000000000000000000000000000000000000000000000815260040160405180910390fd5b60006003600081548092919061024290610b8d565b9190505590506040518060e001604052803373ffffffffffffffffffffffffffffffffffffffff168152602001878152602001600081526020016001151581526020016040518060400160405280868152602001858152508152602001868152602001858152506004600083815260200190815260200160002060008201518160000160006101000a81548173ffffffffffffffffffffffffffffffffffffffff021916908373ffffffffffffffffffffffffffffffffffffffff160217905550602082015181600101556040820151816002015560608201518160030160006101000a81548160ff0219169083151502179055506080820151816004016000820151816000015560208201518160010155505060a0820151816006015560c08201518160070155905050856005600087815260200190815260200160002060000160008282546103939190610bd5565b92505081905550600560008681526020019081526020016000206002018190806001815401808255809150506001900390600052602060002001600090919091909150556000600254876103e79190610c09565b9050600160009054906101000a900473ffffffffffffffffffffffffffffffffffffffff1673ffffffffffffffffffffffffffffffffffffffff166340c10f1933836040518363ffffffff1660e01b8152600401610446929190610c4b565b600060405180830381600087803b15801561046057600080fd5b505af1158015610474573d6000803e3d6000fd5b505050503373ffffffffffffffffffffffffffffffffffffffff16827f4e9d925967f355c189fe2af4ea829fd207ac1de630efbd9780a35e1960cc31d160405160405180910390a350505050505050565b60056020528060005260406000206000915090508060000154908060010154905082565b6104f161066b565b6104fb60006106f2565b565b60046020528060005260406000206000915090508060000160009054906101000a900473ffffffffffffffffffffffffffffffffffffffff16908060010154908060020154908060030160009054906101000a900460ff16908060040160405180604001604052908160008201548152602001600182015481525050908060060154908060070154905087565b60008060009054906101000a900473ffffffffffffffffffffffffffffffffffffffff16905090565b60025481565b60035481565b6105c761066b565b600073ffffffffffffffffffffffffffffffffffffffff168173ffffffffffffffffffffffffffffffffffffffff16036106395760006040517f1e4fbdf70000000000000000000000000000000000000000000000000000000081526004016106309190610a55565b60405180910390fd5b610642816106f2565b50565b600160009054906101000a900473ffffffffffffffffffffffffffffffffffffffff1681565b6106736107b6565b73ffffffffffffffffffffffffffffffffffffffff1661069161058a565b73ffffffffffffffffffffffffffffffffffffffff16146106f0576106b46107b6565b6040517f118cdaa70000000000000000000000000000000000000000000000000000000081526004016106e79190610a55565b60405180910390fd5b565b60008060009054906101000a900473ffffffffffffffffffffffffffffffffffffffff169050816000806101000a81548173ffffffffffffffffffffffffffffffffffffffff021916908373ffffffffffffffffffffffffffffffffffffffff1602179055508173ffffffffffffffffffffffffffffffffffffffff168173ffffffffffffffffffffffffffffffffffffffff167f8be0079c531659141344cd1fd0a4f28419497f9722a3daafe3b4186f6b6457e060405160405180910390a35050565b600033905090565b600080fd5b6000819050919050565b6107d6816107c3565b81146107e157600080fd5b50565b6000813590506107f3816107cd565b92915050565b6000819050919050565b61080c816107f9565b811461081757600080fd5b50565b60008135905061082981610803565b92915050565b600080600080600060a0868803121561084b5761084a6107be565b5b6000610859888289016107e4565b955050602061086a8882890161081a565b945050604061087b8882890161081a565b935050606061088c888289016107e4565b925050608061089d888289016107e4565b9150509295509295909350565b6000602082840312156108c0576108bf6107be565b5b60006108ce8482850161081a565b91505092915050565b6108e0816107c3565b82525050565b60006040820190506108fb60008301856108d7565b61090860208301846108d7565b9392505050565b600060208284031215610925576109246107be565b5b6000610933848285016107e4565b91505092915050565b600073ffffffffffffffffffffffffffffffffffffffff82169050919050565b60006109678261093c565b9050919050565b6109778161095c565b82525050565b60008115159050919050565b6109928161097d565b82525050565b6109a1816107c3565b82525050565b6040820160008201516109bd6000850182610998565b5060208201516109d06020850182610998565b50505050565b6109df816107f9565b82525050565b6000610100820190506109fb600083018a61096e565b610a0860208301896108d7565b610a1560408301886108d7565b610a226060830187610989565b610a2f60808301866109a7565b610a3c60c08301856109d6565b610a4960e08301846109d6565b98975050505050505050565b6000602082019050610a6a600083018461096e565b92915050565b6000602082019050610a8560008301846108d7565b92915050565b610a948161095c565b8114610a9f57600080fd5b50565b600081359050610ab181610a8b565b92915050565b600060208284031215610acd57610acc6107be565b5b6000610adb84828501610aa2565b91505092915050565b6000819050919050565b6000610b09610b04610aff8461093c565b610ae4565b61093c565b9050919050565b6000610b1b82610aee565b9050919050565b6000610b2d82610b10565b9050919050565b610b3d81610b22565b82525050565b6000602082019050610b586000830184610b34565b92915050565b7f4e487b7100000000000000000000000000000000000000000000000000000000600052601160045260246000fd5b6000610b98826107c3565b91507fffffffffffffffffffffffffffffffffffffffffffffffffffffffffffffffff8203610bca57610bc9610b5e565b5b600182019050919050565b6000610be0826107c3565b9150610beb836107c3565b9250828201905080821115610c0357610c02610b5e565b5b92915050565b6000610c14826107c3565b9150610c1f836107c3565b9250828202610c2d816107c3565b91508282048414831517610c4457610c43610b5e565b5b5092915050565b6000604082019050610c60600083018561096e565b610c6d60208301846108d7565b939250505056fea2646970667358221220d23bdd771b8712a1ac9d8fbe32d3cb6619a23fda7adf49f4fa4e91b8f586791164736f6c634300081c0033",
  "linkReferences": {},
  "deployedLinkReferences": {}
}